S0180000786265655F7472616E736D69747465722E737265634C
S113000016C1000042C1000040C100003EC1000012
S11300103CC100003AC1000038C1000036C10000F4
S113002034C10000CFC50000CDC50000CBC5000021
S11300302CC100002AC1000028C1000026C1000014
S113004024C1000022C1000020C100001EC1000024
S11300501CC100001AC1000018C1000028C400001F
S113006014C10000ACC20000E0C200000EC10000D8
S11300700CC100000AC1000008C1000006C1000054
S113008004C1000002C1000000C10000FEC0000065
S1130090FCC00000FAC00000F8C00000F6C0000078
S11300A0F4C00000F2C00000F0C00000EEC0000088
S11300B0ECC00000EAC00000E8C00000E6C0000098
S11300C0E4C00000E2C00000E0C00000DEC00000A8
S11300D0DCC00000DAC00000D8C00000D6C00000B8
S11300E0D4C00000B007B307A207A607AC07EA070D
S11300F0B707BB07C107C507C907CF07D307D7078A
S1130100EA07DD07E107E50700000A0B02090C0D09
S11301100E080703040100000000000000000000B6
S113012000000000000000000000000000000000CB
S11301300000000012111000000000000000000088
S113014000000000000000000000000000000102A8
S113015010202008081020401020408002010201D5
S1130160080402010102040810204080804020108D
S113017008040201800402018040201008040201E6
S1130180080402010102040810204080010204084E
S11301901020408005050505070508080808020227
S11301A002020A0A0808040404040101010101010D
S11301B001010303030303030303040707070C0CF0
S11301C00C0C0C0C0C0C02020202060606060606B7
S11301D006060B0B0B0B0B0B0B0B00002000230074
S11301E0260029002C002F0032000001000003012A
S11301F00601090100002200250028002B002E0022
S11302003100340002010000050108010B01000067
S11302102100240027002A002D00300033000101B2
S11302200000040107010A01680147036E0111245B
S11302301FBECFEFD1E2DEBFCDBF00E00CBF12E0A6
S1130240A0E0B2E0E6EAF1E100E00BBF02C00790F3
S11302500D92A432B107D9F723E0A4E2B2E001C0C1
S11302601D92AF32B207E1F711E0C6E1D1E000E040
S113027005C021970109802FFE0168D7C431D10739
S113028080E00807B1F731D27DC7BACE26E040E856
S113029055E260E070E085E492E02BD140E052EC5E
S11302A061E070E086E292E088C56091240270917A
S11302B025024AE050E086E292E0F3D280912402E3
S11302C0909125020196909325028093240208952B
S11302D020E048E167E186E292E046C586E292E0EA
S11302E0EFC4FC01918D228D892F90E0805C9F4F9B
S11302F0821B91098F7399270895FC01918D828D3A
S1130300981731F0828DE80FF11D858D90E00895E6
S11303108FEF9FEF0895FC01918D828D981761F006
S1130320828DDF01A80FB11D5D968C91928D9F5F28
S11303309F73928F90E008958FEF9FEF0895FC01D3
S1130340538D448D252F30E0842F90E0821B930B36
S1130350541710F0CF960895019708958EE393E013
S1130360892B39F080E090E0892B19F087D1811135
S113037025C080E090E0892B41F080E090E0892B5B
S113038021F00E94000081111CC080E090E0892BC4
S113039041F080E090E0892B21F00E94000081115F
S11303A013C080E090E0892BA1F080E090E0892BDD
S11303B081F00E94000081110AC008950E9400008B
S11303C0D8CF0E940000E1CF0E940000EACF0C9435
S11303D000000895FC01848DDF01A80FB11DA35A0C
S11303E0BF4F2C91848D90E001968F739927848F51
S11303F0A689B7892C93A089B1898C918370806474
S11304008C93938D848D981306C00288F389E02D14
S113041080818F7D80830895EF92FF920F931F93C5
S1130420CF93DF93EC0181E0888F9B8D8C8D9813A3
S113043005C0E889F989808185FD25C0F62E0B8DDC
S113044010E00F5F1F4F0F731127E02E8C8DE81201
S11304500BC00FB607FCFACFE889F989808185FFC4
S1130460F5CFCE01B7DFF2CF8B8DFE01E80FF11D82
S1130470E35AFF4FF0829FB7F8940B8FEA89FB8908
S1130480808180620AC09FB7F894EE89FF896083F7
S1130490E889F98980818370806480839FBF81E0CB
S11304A090E0DF91CF911F910F91FF90EF9008950D
S11304B0CF93DF93EC01888D8823C1F0EA89FB890F
S11304C0808185FD05C0A889B9898C9186FD0EC0FF
S11304D00FB607FCF5CF808185FFF2CFA889B989D3
S11304E08C9185FFEDCFCE0175DFE8CFDF91CF9101
S11304F00895CF92DF92EF92FF921F93CF93DF93F1
S1130500EC016A017B01122FE889F98982E080837A
S11305104115514E61057105A9F060E079E08DE364
S113052090E0A7019601D4D5DA01C9010197A10988
S1130530B109B695A795979587959C01211580E1FA
S11305403807A0F0E889F989108260E874E88EE140
S113055090E0A7019601BCD5DA01C9010197A10970
S1130560B109B695A795979587959C01EC85FD856E
S11305703083EE85FF852083188EEC89FD891083F6
S1130580EA89FB89808180618083EA89FB89808193
S113059088608083EA89FB89808180688083EA8916
S11305A0FB8980818F7D8083DF91CF911F91FF90A4
S11305B0EF90DF90CF90089580E090E008951F922F
S11305C00F920FB60F9211240BB60F922F938F93A5
S11305D09F93EF93FF93E0915502F091560280812F
S11305E0E0915B02F0915C0282FD12C090818091E7
S11305F05E028F5F8F7320915F02821751F0E0914A
S11306005E02F0E0EB5BFD4F958F80935E0201C0CC
S11306108081FF91EF919F918F912F910F900BBE4D
S11306200F900FBE0F901F9018951F920F920FB648
S11306300F9211240BB60F922F933F934F935F9316
S11306406F937F938F939F93AF93BF93EF93FF9396
S113065085E492E0BFDEFF91EF91BF91AF919F914E
S11306608F917F916F915F914F913F912F910F9057
S11306700BBE0F900FBE0F901F90189585E492E06B
S113068030DE21E0892B09F420E0822F0895E5E48F
S1130690F2E01382128288EE93E0A0E0B0E084835B
S11306A09583A683B78384E092E09183808385EC6D
S11306B090E09587848784EC90E09787868780EC28
S11306C090E0918B808B81EC90E0938B828B82EC19
S11306D090E0958B848B86EC90E0978B868B118EC3
S11306E0128E138E148E089508952BD1FDDFCEDD66
S11306F0CEEAD1E0DADD2097E9F330DEFBCFCF920A
S1130700DF92EF92FF920F931F93CF93DF936C01CD
S11307107A018B01C0E0D0E0CE15DF0581F0D8016D
S11307206D918D01D601ED91FC910190F081E02D48
S1130730C6011995892B11F02196EECF7E01C701D0
S1130740DF91CF911F910F91FF90EF90DF90CF90A9
S113075008956115710579F0FB0101900020E9F716
S11307603197AF01461B570BDC01ED91FC910280E0
S1130770F381E02D199480E090E00895DC01ED917F
S1130780FC910190F081E02D19948F929F92AF9289
S1130790BF92EF92FF920F931F93CF93DF93CDB746
S11307A0DEB7A1970FB6F894DEBF0FBECDBF7C01B4
S11307B0FA01CB0119A2223008F42AE08E010F5D60
S11307C01F4F822E912CA12CB12CBF01A5019401A5
S11307D07FD4F901CA01015011096A3010F4605D37
S11307E001C0695CD8016C93232B242B252B69F75A
S11307F0B801C701AEDFA1960FB6F894DEBF0FBEF5
S1130800CDBFDF91CF911F910F91FF90EF90BF90DB
S1130810AF909F908F900895CF92DF92EF92FF92C6
S11308200F931F93CF93DF932115310581F4DC01DE
S1130830ED91FC910190F081E02D642FDF91CF9137
S11308401F910F91FF90EF90DF90CF9019942A3071
S11308503105F1F477FF1BC06A017B01EC016DE205
S11308608DDF8C0144275527BA014C195D096E09A7
S11308707F092AE0CE0189DF800F911FDF91CF919C
S11308801F910F91FF90EF90DF90CF9008952AE091
S1130890DF91CF911F910F91FF90EF90DF90CF9058
S11308A074CF9A01AB01770F660B770BB5CF1F920C
S11308B00F920FB60F9211242F933F938F939F9310
S11308C0AF93BF938091E3029091E402A091E5027B
S11308D0B091E6023091E20223E0230F2D3720F499
S11308E00196A11DB11D05C026E8230F0296A11D86
S11308F0B11D2093E2028093E3029093E402A0935B
S1130900E502B093E6028091E7029091E802A0919B
S1130910E902B091EA020196A11DB11D8093E7029C
S11309209093E802A093E902B093EA02BF91AF91D9
S11309309F918F913F912F910F900FBE0F901F9019
S11309401895789484B5826084BD84B5816084BD33
S113095085B5826085BD85B5816085BDEEE6F0E034
S1130960808181608083E1E8F0E010828081826090
S11309708083808181608083E0E8F0E08081816011
S11309808083E1EBF0E0808184608083E0EBF0E041
S1130990808181608083E1E9F0E0808182608083EE
S11309A0808181608083E0E9F0E0808181608083E0
S11309B0E1EAF0E0808182608083808181608083CD
S11309C0E0EAF0E0808181608083E1E2F1E080810F
S11309D082608083808181608083E0E2F1E08081B5
S11309E081608083EAE7F0E0808184608083808195
S11309F0826080838081816080838081806880833D
S1130A001092C100089520912D0330912E032817D0
S1130A103907B9F49091EB028091EC02981789F0B0
S1130A20E091EB02F0E0E351FD4F80812091EB0275
S1130A3030E02F5F3F4F2F7333272093EB0290E07A
S1130A4008958FEF9FEF08951F93CF93DF93DC01F9
S1130A505C968D919C915D97009739F421E030E08C
S1130A6013963C932E9312973BC05196ED91FC91B3
S1130A70529750962C915097322F30951FB75E960F
S1130A804C915E97742F727041FD6095F89440818B
S1130A90772311F0422B01C043234083EC012197BB
S1130AA0F1F748E0508160FF02C0522B01C053238C
S1130AB05083EC012197F1F76695415099F78081B5
S1130AC0772319F08323808302C0282B20831FBF40
S1130AD05C968D919C915D970197F1F781E090E090
S1130AE0DF91CF911F910895089520912D033091A6
S1130AF02E032817390771F49091EB028091EC02D0
S1130B00981741F0E091EB02F0E0E351FD4F808152
S1130B1090E008958FEF9FEF089520912D03309179
S1130B202E032817390769F48091EC022091EB0217
S1130B3090E0805C9F4F821B910960E470E0B5C235
S1130B40089580E090E00895E0912D03F0912E0344
S1130B50E817F90769F4A389B4899C91858980957C
S1130B6089238C9310922E0310922D0381E0089513
S1130B7080E00895CF93DF93EC018A8D9B8D892BC0
S1130B80E9F080912D0390912E03C817D907B1F095
S1130B90009709F0D9DF8E8D8E7F8E8F1092EC0234
S1130BA01092EB02D0932E03C0932D03EB89FC89A2
S1130BB090818D89892B808381E001C080E0DF9161
S1130BC0CF9108951F920F920FB60F9211240BB676
S1130BD00F922F933F934F935F936F937F938F93D2
S1130BE09F93AF93BF93EF93FF93E0912D03F09105
S1130BF02E03309709F451C0968DA685B785858557
S1130C0091FF04C09C91892329F447C09C918923B6
S1130C1009F043C0A389B4899C918589809589236F
S1130C208C93868997890197F1F7608D718DA685DC
S1130C30B785558538E020E0CB010197F1F7822F85
S1130C4090E095958795282F4C91452309F02068CD
S1130C50315091F7868D81FD20958091EC0290E0D2
S1130C6001968F7399273091EB02381749F0A091C0
S1130C70EC02B0E0A351BD4F2C938093EC0203C06F
S1130C80868D8160868F828D938D0197F1F7A3897C
S1130C90B4899C918589892B8C93FF91EF91BF91A5
S1130CA0AF919F918F917F916F915F914F913F9100
S1130CB02F910F900BBE0F900FBE0F901F901895A1
S1130CC026E132E0FC01318320833ECF1F93CF9392
S1130CD0DF93EC01162F6E8D6695617081E06827B5
S1130CE0812FB5D161E0812F76D1812F90E0FC0175
S1130CF0E25BFE4FE491E88BFC01EC56FE4FE4917D
S1130D00F0E0EE0FFF1FEC50FE4F859194919A8B0B
S1130D10898BDF91CF911F9108951F93CF93DF9318
S1130D20EC01162F60E0812F56D18E8D81FD03C01A
S1130D3061E0812F8CD11C87812F90E0FC01E25B64
S1130D40FE4FE491ED87FC01EC56FE4FE491F0E098
S1130D50EE0FFF1FE652FE4F859194919F878E8779
S1130D60DF91CF911F9108951F93CF93DF93EC01EF
S1130D70162F1B821A8288EE93E0A0E0B0E08C83E9
S1130D809D83AE83BF8386E192E0998388831F8A23
S1130D901E8A198E188E1B8E1A8E1D8E1C8E8E8D99
S1130DA08E7F20FB81F98E8F642FCE018FDF612F20
S1130DB0CE01DF91CF911F91B0CFCF93DF93EC01A0
S1130DC09A01AB011B8E1A8E198E188E1F8A1E8AE9
S1130DD060E079E08DE390E09DD1F90124303105A4
S1130DE018F0C901039702C081E090E09D8F8C8FB9
S1130DF08C8596EF980F943048F06EEC680F643051
S1130E0028F062EC680F683008F084C0B901769568
S1130E1067956431710518F06351710902C061E08E
S1130E2070E07F8B6E8B369720F0B90165507109A5
S1130E3002C061E070E0798F688FB901660F771F97
S1130E40260F371F36952795369527952D30310572
S1130E5018F02C50310902C021E030E03B8F2A8F7A
S1130E60943060F02EEC280F243040F022EC280F50
S1130E70283008F053C0A8E6B0E052C0A8E6B0E0BD
S1130E80E8E6F0E02081943048F09EEC980F94302E
S1130E9028F08E53883010F484E001C081E0822B66
S1130EA08C938C8596EF980F943058F02EEC280F85
S1130EB0243038F022EC280F283030F020E030E0E5
S1130EC005C02BE630E002C02DE630E03C8B2B8BD6
S1130ED0943010F49AEF0BC0823381F0833381F0A5
S1130EE0843381F092EC980F983070F492EC980F60
S1130EF081E001C0880F9A95EAF707C088E005C031
S1130F0084E003C082E001C081E08D8B8C8D9D8DD7
S1130F100197F1F7CE01DF91CF912CCEA0E0B0E0A4
S1130F20283008F4ADCFE0E0F0E0ACCF90E0FC0175
S1130F303197E231F10508F04DC08827EE58FF4F94
S1130F408F4F04C1809180008F7703C0809180000F
S1130F508F7D80938000089580918000877FF9CFF2
S1130F6084B58F7702C084B58F7D84BD0895809148
S1130F70B0008F7703C08091B0008F7D8093B00064
S1130F800895809190008F7707C0809190008F7DA5
S1130F9003C080919000877F809390000895809192
S1130FA0A0008F7707C08091A0008F7D03C080913F
S1130FB0A000877F8093A0000895809120018F77FF
S1130FC007C0809120018F7D03C080912001877F1D
S1130FD0809320010895CF93DF9390E0FC01E25BBE
S1130FE0FE4F2491FC01EC56FE4F8491882361F15D
S1130FF090E0880F991FFC01E25FFD4FC591D491E9
S1131000FC01EC50FE4FA591B491611109C09FB74A
S1131010F8948881209582238883EC912E230BC039
S1131020623061F49FB7F8948881322F309583231E
S11310308883EC912E2B2C939FBF06C08FB7F89416
S1131040E8812E2B28838FBFDF91CF9108951F93C2
S1131050CF93DF93282F30E0F901E85FFE4F8491AE
S1131060F901E25BFE4FD491F901EC56FE4FC491B5
S1131070CC23B9F0162F811159DFEC2FF0E0EE0FDD
S1131080FF1FEC50FE4FA591B4919FB7F894111136
S113109004C08C91D095D82302C0EC91DE2BDC9354
S11310A09FBFDF91CF911F91089597FB072E16F4F0
S11310B0009406D077FD08D051D007FC05D03EF44B
S11310C0909581959F4F0895709561957F4F0895F0
S11310D0A1E21A2EAA1BBB1BFD010DC0AA1FBB1F38
S11310E0EE1FFF1FA217B307E407F50720F0A21BAA
S11310F0B30BE40BF50B661F771F881F991F1A9417
S113110069F760957095809590959B01AC01BD0140
S1131110CF010895052E97FB16F400940FD057FDC8
S113112005D0D6DF07FC02D046F408C050954095A0
S1131130309521953F4F4F4F5F4F0895909580957F
S1131140709561957F4F8F4F9F4F0895EE0FFF1F4E
S1131150881F8BBF0790F691E02D1994AA1BBB1B27
S113116051E107C0AA1FBB1FA617B70710F0A61BA3
S1131170B70B881F991F5A95A9F780959095BC01C4
S1131180CD01089511E0C6E1D1E000E005C0802F53
S1131190FE01DCDF2196011DC731D10780E008077D
S10911A0B1F7F894FFCF43
S11311A6000000000C027F039F01580271018B01AD
S11311B67D010000000024057F03DC0274058D0513
S10711C6030575059F
S9030000FC
